:020000040800F2
:10000000000001200D4900085D4900085D49000815
:100010005D4900085D4900085D49000800000000D6
:100020000000000000000000000000005D49000822
:100030005D490008000000005D4900081334000815
:100040005D4900085D4900085D4900085D490008F8
:100050005D4900085D490008093500080F350008B2
:10006000153500081B350008213500085D490008DA
:100070005D4900085D4900085D4900085D490008C8
:100080005D4900085D4900085D4900080000000066
:1000900000000000000000000000000027350008FC
:1000A000C131000839310008D53100085D31000840
:1000B0007131000885310008993100085D49000858
:1000C0005D4900085D4900085D4900085D49000878
:1000D0005D49000831400008494000080000000068
:1000E0004F3500085D4900085D4900080000000028
:1000F0000000000000000000000000005D49000852
:10010000000000005D490008AD3100085D490008AD
:1001100000000000000000000000000000000000DF
:100120005D4900085D4900085D4900085D49000817
:100130005D49000800000000000000000000000011
:100140000000000000000000000000005D49000801
:100150005D4900085D4900085D49000865400008E8
:100160005D4900085D490008000000000000000033
:10017000000000000000000000000000000000007F
:10018000000000005D4900080000000000000000C1
:040190005D490008BD
:1001A00010F8012B11F8013B012A28BF9A42F7D021
:1001B000D01A7047034613F8012B002AFBD1181AF6
:1001C000013870470000000000000000000000003F
:1001D00001F0FF01102A2BDB10F0070F08D010F8F8
:1001E000013B013A8B422DD010F0070F42B3F6D1FC
:1001F000F0B441EA012141EA014122F007047FF015
:1002000000070023F0E80256083C85EA010586EA6B
:10021000010685FA47F5A3FA87F586FA47F6A5FAA7
:1002200087F68EB9EED1F0BC01F0FF0102F00702B3
:1002300032B110F8013B013A83EA010313B1F8D15E
:100240000020704701387047002D06BF354603383F
:10025000073815F0010F07D1013015F4807F02BF78
:10026000013015F4C03F0130F0BC0138704700BFC9
:1002700081F0004102E000BF83F0004330B54FEA57
:1002800041044FEA430594EA050F08BF90EA020FC4
:100290001FBF54EA000C55EA020C7FEA645C7FEA57
:1002A000655C00F0E2804FEA5454D4EB5555B8BF7A
:1002B0006D420CDD2C4480EA020281EA030382EAEB
:1002C000000083EA010180EA020281EA0303362D7D
:1002D00088BF30BD11F0004F4FEA01314FF4801C50
:1002E0004CEA113102D0404261EB410113F0004F62
:1002F0004FEA03334CEA133302D0524263EB430319
:1003000094EA050F00F0A780A4F10104D5F1200EB6
:100310000DDB02FA0EFC22FA05F2801841F1000111
:1003200003FA0EF2801843FA05F359410EE0A5F1E5
:1003300020050EF1200E012A03FA0EFC28BF4CF016
:10034000020C43FA05F3C01851EBE37101F00045CC
:1003500007D54FF0000EDCF1000C7EEB00006EEBD9
:100360000101B1F5801F1BD3B1F5001F0CD3490863
:100370005FEA30004FEA3C0C04F101044FEA4452BA
:1003800012F5800F80F09A80BCF1004F08BF5FEA41
:10039000500C50F1000041EB045141EA050130BD21
:1003A0005FEA4C0C404141EB0101013C28BFB1F533
:1003B000801FE9D291F0000F04BF01460020B1FA7E
:1003C00081F308BF2033A3F10B03B3F120020CDA51
:1003D0000C3208DD02F1140CC2F10C0201FA0CF02F
:1003E00021FA02F10CE002F11402D8BFC2F1200C94
:1003F00001FA02F120FA0CFCDCBF41EA0C0190404A
:10040000E41AA2BF01EB0451294330BD6FEA040492
:100410001F3C1CDA0C340EDC04F11404C4F120027D
:1004200020FA04F001FA02F340EA030021FA04F38F
:1004300045EA030130BDC4F10C04C4F1200220FAE6
:1004400002F001FA04F340EA0300294630BD21FA24
:1004500004F0294630BD94F0000F83F4801306BFEA
:1004600081F480110134013D4EE77FEA645C18BFDE
:100470007FEA655C29D094EA050F08BF90EA020F75
:1004800005D054EA000C04BF1946104630BD91EA6D
:10049000030F1EBF0021002030BD5FEA545C05D170
:1004A0004000494128BF41F0004130BD14F58004AF
:1004B0003CBF01F5801130BD01F0004545F0FE4123
:1004C00041F470014FF0000030BD7FEA645C1ABF58
:1004D000194610467FEA655C1CBF0B46024650EA8F
:1004E000013406BF52EA033591EA030F41F40021BB
:1004F00030BD00BF90F0000F04BF0021704730B541
:100500004FF4806404F132044FF000054FF0000115
:1005100050E700BF90F0000F04BF0021704730B5D6
:100520004FF4806404F1320410F0004548BF4042AB
:100530004FF000013EE700BF42004FEAE2014FEA00
:1005400031014FEA02701FBF12F07F4393F07F4FDB
:1005500081F06051704732F07F4208BF704793F0DE
:100560007F4F04BF41F40021704730B54FF46074F1
:1005700001F0004521F000411CE700BF50EA0102F4
:1005800008BF704730B54FF000050AE050EA01029D
:1005900008BF704730B511F0004502D5404261EB0D
:1005A00041014FF4806404F132045FEA915C3FF44E
:1005B000D8AE4FF003025FEADC0C18BF03325FEAEB
:1005C000DC0C18BF033202EBDC02C2F1200300FA9C
:1005D00003FC20FA02F001FA03FE40EA0E0021FAC1
:1005E00002F11444BDE600BF70B54FF0FF0C4CF4AF
:1005F000E06C1CEA11541DBF1CEA135594EA0C0F61
:1006000095EA0C0F00F0DEF82C4481EA030621EA9B
:100610004C5123EA4C5350EA013518BF52EA0335D6
:1006200041F4801143F4801338D0A0FB02CE4FF088
:100630000005E1FB02E506F00042E0FB03E54FF0B8
:100640000006E1FB03569CF0000F18BF4EF0010EB0
:10065000A4F1FF04B6F5007F64F5407404D25FEAAC
:100660004E0E6D4146EB060642EAC62141EA55515F
:100670004FEAC52040EA5E504FEACE2EB4F1FD0CA1
:1006800088BFBCF5E06F1ED8BEF1004F08BF5FEA1F
:10069000500E50F1000041EB045170BD06F00046D1
:1006A00046EA010140EA020081EA0301B4EB5C047E
:1006B000C2BFD4EB0C0541EA045170BD41F4801176
:1006C0004FF0000E013C00F3AB8014F1360FDEBF9B
:1006D000002001F0004170BDC4F10004203C35DA77
:1006E0000C341BDC04F11404C4F1200500FA05F3FA
:1006F00020FA04F001FA05F240EA020001F000429B
:1007000021F0004110EBD37021FA04F642EB060110
:100710005EEA430E08BF20EAD37070BDC4F10C043A
:10072000C4F1200500FA04F320FA05F001FA04F2FE
:1007300040EA020001F0004110EBD37041F10001EA
:100740005EEA430E08BF20EAD37070BDC4F12005F5
:1007500000FA05F24EEA020E20FA04F301FA05F25D
:1007600043EA020321FA04F001F0004121FA04F205
:1007700020EA020000EBD3705EEA430E08BF20EAD5
:10078000D37070BD94F0000F0FD101F0004640000F
:1007900041EB010111F4801F08BF013CF7D041EA91
:1007A000060195F0000F18BF704703F00046520095
:1007B00043EB030313F4801F08BF013DF7D043EA66
:1007C0000603704794EA0C0F0CEA135518BF95EA1C
:1007D0000C0F0CD050EA410618BF52EA4306D1D1A3
:1007E00081EA030101F000414FF0000070BD50EAC2
:1007F000410606BF1046194652EA430619D094EA4C
:100800000C0F02D150EA013613D195EA0C0F05D135
:1008100052EA03361CBF104619460AD181EA030189
:1008200001F0004141F0FE4141F470014FF0000041
:1008300070BD41F0FE4141F4780170BD70B54FF0DC
:10084000FF0C4CF4E06C1CEA11541DBF1CEA13555C
:1008500094EA0C0F95EA0C0F00F0A7F8A4EB05043E
:1008600081EA030E52EA03354FEA013100F0888035
:100870004FEA03334FF0805545EA131343EA1263FE
:100880004FEA022245EA111545EA10654FEA0026B3
:100890000EF000419D4208BF964244F1FD0404F56C
:1008A000407402D25B084FEA3202B61A65EB0305C8
:1008B0005B084FEA32024FF480104FF4002CB6EB85
:1008C000020E75EB030E22BFB61A754640EA0C0005
:1008D0005B084FEA3202B6EB020E75EB030E22BF45
:1008E000B61A754640EA5C005B084FEA3202B6EB86
:1008F000020E75EB030E22BFB61A754640EA9C0045
:100900005B084FEA3202B6EB020E75EB030E22BF14
:10091000B61A754640EADC0055EA060E18D04FEAD2
:10092000051545EA16754FEA06164FEAC30343EA72
:1009300052734FEAC2025FEA1C1CC0D111F4801F3F
:100940000BD141EA00014FF000004FF0004CB6E738
:1009500011F4801F04BF01430020B4F1FD0C88BFD7
:10096000BCF5E06F3FF6AFAEB5EB030C04BFB6EBE2
:10097000020C5FEA500C50F1000041EB045170BDD5
:100980000EF0004E4EEA113114EB5C04C2BFD4EB02
:100990000C0541EA045170BD41F480114FF0000E86
:1009A000013C90E645EA060E8DE60CEA135594EA02
:1009B0000C0F08BF95EA0C0F3FF43BAF94EA0C0F05
:1009C0000AD150EA01347FF434AF95EA0C0F7FF47A
:1009D00025AF104619462CE795EA0C0F06D152EACE
:1009E00003353FF4FDAE1046194622E750EA4106B2
:1009F00018BF52EA43067FF4C5AE50EA41047FF4C3
:100A00000DAF52EA43057FF4EBAE12E74FF0FF3C27
:100A100006E000BF4FF0010C02E000BF4FF0010CF8
:100A20004DF804CD4FEA410C7FEA6C5C4FEA430C71
:100A300018BF7FEA6C5C1BD001B050EA410C0CBFC0
:100A400052EA430C91EA030F02BF90EA020F002022
:100A5000704710F1000F91EA030F58BF994208BF89
:100A600090422CBFD8176FEAE37040F00100704746
:100A70004FEA410C7FEA6C5C02D150EA013C07D19D
:100A80004FEA430C7FEA6C5CD6D152EA033CD3D0E8
:100A90005DF8040B704700BF8446104662468C46E2
:100AA0001946634600E000BF01B5FFF7B7FF002815
:100AB00048BF10F1000F01BD4DF808EDFFF7F4FF3E
:100AC0000CBF012000205DF808FB00BF4DF808EDC9
:100AD000FFF7EAFF34BF012000205DF808FB00BFEC
:100AE0004DF808EDFFF7E0FF94BF012000205DF80E
:100AF00008FB00BF4DF808EDFFF7CEFF94BF0120C3
:100B000000205DF808FB00BF4DF808EDFFF7C4FFBB
:100B100034BF012000205DF808FB00BF4FEA410C04
:100B20007FEA6C5C02D150EA013C0AD14FEA430CE7
:100B30007FEA6C5C02D152EA033C02D14FF0000024
:100B400070474FF0010070474FEA410212F5001262
:100B500015D211D56FF47873B3EB625212D94FEA04
:100B6000C12343F0004343EA505311F0004F23FAEE
:100B700002F018BF404270474FF00000704750EA43
:100B8000013005D111F0004008BF6FF00040704700
:100B90004FF00000704700BF4A0011D212F500125A
:100BA00011D20DD56FF47873B3EB62520ED44FEAC5
:100BB000C12343F0004343EA505323FA02F0704745
:100BC0004FF00000704750EA013002D14FF0FF3083
:100BD00070474FF0000070474FEA4102B2F1E04326
:100BE00024BFB3F5001CDCF1FE5C0DD901F0004C14
:100BF0004FEAC0024CEA5070B2F1004F40EB830064
:100C000008BF20F00100704711F0804F21D113F18F
:100C10003872BCBF01F00040704741F480114FEAC8
:100C20005252C2F11802C2F1200C10FA0CF320FA51
:100C300002F018BF40F001004FEAC1234FEAD3236E
:100C400003FA0CFC40EA0C0023FA02F34FEA4303D8
:100C5000CCE77FEA625307D150EA01331EBF4FF061
:100C6000FE4040F44000704701F0004040F0FE407C
:100C700040F40000704700BF53B94AB9002908BFCB
:100C800000281CBF4FF0FF314FF0FF3000F00CB8D0
:100C9000ADF1080C6DE904CE06F0B8FEDDF804E015
:100CA000DDE9022304B07047704700BF10B5054C62
:100CB000237833B9044B13B10448AFF30080012308
:100CC000237010BD78020020000000000C7D000899
:100CD00008B5034B1BB103490348AFF3008008BDBF
:100CE000000000007C0200200C7D0008044B186A04
:100CF000044B1B6A1843003818BF0120704700BF1F
:100D0000E40200209802002010B578497848794C18
:100D100003F0A0FC784B764819780A2203F007FD0F
:100D20007649734803F096FC754B714819780A228E
:100D300003F0FDFC73496E4803F08CFC724B6C4869
:100D4000196803F087FC7149694803F083FCFFF7D9
:100D5000CDFF0A220146664803F0E9FC6C4964486D
:100D600003F078FCE16862480A2203F0BEFC69499E
:100D70005F4803F06FFC21695D480A2203F0B5FC6F
:100D800065495B4803F066FC0A2294F8481058480D
:100D900003F0CDFC6149564803F05CFCD4ED037AC6
:100DA00094ED0F0A5248F8EEE77A062187EE800AA2
:100DB00003F04CFD5A494E4803F04CFC06214C48C8
:100DC000D4ED047A94ED0F0AF8EEE77A87EE800A04
:100DD00003F03CFD5349464803F03CFC06214448DF
:100DE00094ED0F0A03F032FD4F49414803F032FC05
:100DF000D4ED0F7A94ED100A3D4880EE270A0321C6
:100E000003F024FD49493A4803F024FC0321384803
:100E1000D4ED0F7A94ED110A454C80EE270A03F0C9
:100E200015FD4449324803F015FCE16830480A22B8
:100E300003F05BFC40492E4803F00CFC21692C4870
:100E40000A2203F052FC3D49294803F003FC0A2220
:100E500094F84810264803F06AFC3949244803F006
:100E6000F9FBD4ED037A94ED0F0A2148F8EEE77A06
:100E7000062187EE800A03F0E9FC32491C4803F0A2
:100E8000E9FB06211A48D4ED047A94ED0F0AF8EE36
:100E9000E77A87EE800A03F0D9FC2B49144803F067
:100EA000D9FB0621124894ED0F0A03F0CFFC274925
:100EB0000F4803F0CFFBD4ED0F7A94ED100A0C48E5
:100EC00080EE270A032103F0C1FC2149084803F002
:100ED000C1FB0748032194ED110AD4ED0F7ABDE858
:100EE000104080EE270A03F0B6BC00BF287D000842
:100EF000D4030020E402002096020020387D000880
:100F000095020020407D000800000020487D000878
:100F10001A8200084F7D0008547D0008597D0008A2
:100F20005F7D0008667D00086E7D0008757D000805
:100F3000980200207C7D0008807D0008857D0008E7
:100F40008A7D0008907D0008977D00089F7D00083D
:100F5000A67D000810B50A4904460A4803F07AFB4A
:100F60004CB123783BB12021064803F077FB0548BC
:100F7000214603F06FFBBDE81040024803F072BB4E
:100F8000AD7D0008D403002038B505460C460C485A
:100F90000C4903F05FFB0A48294603F05BFB4CB1A8
:100FA00023783BB12021064803F058FB0448214632
:100FB00003F050FBBDE83840014803F053BB00BFCD
:100FC000D4030020B07D00080B4B10B51C680B4B00
:100FD0001B7823B90A492046FFF7E2F828B10948EF
:100FE0002146FFF7D1FF002010BD074B18780028DD
:100FF000FAD106490648F4E70000002095020020D7
:10100000B57D0008BA7D000896020020C27D000868
:10101000D47D000810B508490446FFF7C1F840B177
:1010200006492046FFF7BCF80028054818BF0020F5
:1010300010BD0448FCE700BF247E0008DD7D0008E9
:1010400098020020E402002037B50D46044610B98E
:10105000002003B030BD0378002BF9D0002301A994
:10106000019304F0E1FB019B85ED000A9C42EFD067
:101070001B78002BECD1DFED067AB0EEC00AB4EE9F
:10108000670AF1EE10FA94BF01200020E1E700BFEB
:10109000FFFF7F7F37B50D46044610B9002003B02F
:1010A00030BD0378002BF9D000230A2201A9019357
:1010B00004F098FC019B28609C42EFD01878B0FAAD
:1010C00080F04009EBE70000D0ED077A67EEA76AF1
:1010D000D0ED067A37EEA77A30B5C6EE877AD0E93A
:1010E00003452A1B002AFDEEE77A17EE903A06D157
:1010F000012B22DC00230262C361826230BD816A5F
:1011000012DD002907DD9A4202DD90F83810A1B9FE
:101110005B42836211E010D09A420EDD90F83830C5
:101120005BB14942816208E000292BDD641BA342C8
:10113000EEDA90F838100029EAD1836A5BBB002A06
:10114000D0ED0B7AD4BF00220122C0ED0C7A80F8DA
:101150003820BCEEE77ADFED206A0133836217EEB8
:10116000103A86EEA77A0C2B38BF0C23036290F856
:10117000383080ED077A002BC0D1B1EE477A80ED90
:10118000077ABBE7D9D0641BA342D6DA90F838308F
:10119000002BD2D1C5E707EE103AF8EEC75AF1EEB0
:1011A000006AB7EE007AD0ED0C7AA5EEA67A37EE9B
:1011B000A76AC6EE076A90ED0D7A77EEE67AF4EE4E
:1011C000C77AF1EE10FAC0ED0C7A44BF80ED0C7ACC
:1011D000F0EE477ABDE700BF00247449026AF8B513
:1011E00004460D46002A3DD0436ACB1A9A4239D8AC
:1011F00090F83810037A1C4E40681C4FCB1A5942A5
:10120000594103F00BFC71683B68194AB3FBF2F3D8
:1012100003EB83037268521A9342FBDC20680121BE
:1012200003F0FCFB124A3B687168B3FBF2F30E4813
:101230000A2253434268521A9342FBDC2068002181
:1012400003F0ECFB94F83820E3686562002A0CBFD9
:101250004FF0FF3201221344E3602046BDE8F8401E
:10126000FFF732BFF8BD00BF001000E02C000020E7
:1012700040420F0010B504460121006803F070FBE6
:101280006068012103F06CFB2068002103F0C6FBBD
:10129000217A6068BDE8104003F0C0BBF7EE007A29
:1012A000B4EEE70AF1EE10FA9FED0F7A826A48BFBA
:1012B000B0EE670AC7EE007A002A80ED050AC0ED9D
:1012C0000D7A0FDDD0ED077A27EEA77AD0ED067AFA
:1012D00077EEA77AC7EE276AFDEEE66AC0ED0A6AE6
:1012E000FFF7F2BE704700BF0024744902698A42CA
:1012F00002D00161FFF7E8BE704700000000000067
:101300002DE9F04F2DED028B0D4689B01646002ACF
:1013100040F0BF80022903D96F4BBEE06F49C7E0A0
:101320006F49C5E08DF812308DF813306D4B1B6995
:1013300005936D4B1B69069300F108044FF0020AF8
:1013400054F8048C4046FFF765FE664B984207460A
:101350000ED0654B984208D106AA9DF8133003922F
:101360000DF1130B5BB1614900E041466048A0E01C
:1013700005AA9DF8123003920DF1120BF2E700233B
:101380002068079307A9FFF75FFE10B92168594845
:101390008FE0F86B9DED078AFFF7CEF8804618EED8
:1013A000100A8946FFF7C8F802460B4640464946F0
:1013B000FFF71AF921F00043019300908046894617
:1013C0004D4BDDE900014FF0FF32FFF7A7FB90BB6B
:1013D000DDE90001484B4FF0FF32FFF795FB50BBB2
:1013E0003BA3D3E9002340464946FFF78DFB10BBE2
:1013F000424B002240464946FFF768FBD8B949EC0A
:10140000108B06F08BFAB5EE408AF1EE10FA034627
:1014100014D1C6B9F968DA17C81842EBE17310F1B4
:1014200000424FF0FF3143F10003914276EB03039A
:1014300009D2334900E0334933483AE00028E8D183
:101440003249334835E0039B0AF1020A1860AA4585
:101450004FF001038BF8003004F10804FFF470AF83
:10146000FFF7B2FD60B39DF812301BB105991D481E
:10147000FFF73CFF9DF813301BB106991A48FFF7A0
:1014800035FF029809B0BDEC028BBDE8F04FFFF7C5
:1014900061BD02297FF642AF1E4B02936B1E13F013
:1014A00001033FF43FAF0D490D4B002E08BF194615
:1014B000194809B0BDEC028BBDE8F04FFFF764BDE1
:1014C00009B0BDEC028BBDE8F08F00BFAFF3008028
:1014D0000000C0FFFFFFDF41DF7D0008EF7D000857
:1014E000077E0008E4020020980200202B7E0008FE
:1014F000267E00083A7E0008FFFFEF7F0000E0C173
:10150000A57E0008417E00086C7E0008727E0008FF
:101510009A7E0008E77D00081F7E0008D0ED067A5D
:10152000B0EE000A80EE270A10B5044606F0D4F9A2
:10153000DFED087AD4ED056A20EE270ADFED067AA2
:1015400087EEA67A20EE270A84ED0D7A84ED0B0A49
:1015500010BD00BF560E2D3F00247449F7EE007AEF
:10156000B4EEE70AF1EE10FA90ED067A48BFB0EE5D
:10157000670AB4EE407AF1EE10FA10B5044614D0C2
:10158000C7EE006AD0ED0A7A80ED060AF8EEE77A37
:1015900067EEA67AFDEEE77AC0ED0A7AFFF7BEFFA6
:1015A0002046BDE81040FFF78FBD10BD10B5C368E1
:1015B0000361002100230446C36101628162006867
:1015C00003F02CFA94ED100A2046FFF767FE94ED25
:1015D000110A2046FFF7C2FF10BD000008B50448FD
:1015E000FFF7E4FFBDE808400248FFF7DFBF00BF98
:1015F000E40200209802002038B51A4D1A4C284603
:10160000FFF738FE2046FFF735FE01211A2003F0D0
:10161000A7F9164B002201211A201A7003F0FEF9D7
:1016200095ED100A2846FFF739FE95ED110A284678
:10163000FFF794FF94ED100A2046FFF72FFE94ED7C
:10164000110A2046FFF78AFF094806224FF4E131CC
:1016500002F07EFF0749064803F016F8BDE838405F
:10166000FFF752BBE40200209802002096020020FF
:10167000D4030020CF7E00082DE9F3414FF0FF3363
:101680000A21009309222548DFF8B880244F02F090
:1016900083FE244B0024002501261846C3E9034499
:1016A000C3E908441C605E601C72C3F814809F612B
:1016B000DD619C62DD621D635D6383F83860FFF766
:1016C0002DFF184A184BD363184B1364184B5364FF
:1016D00082F84840174A10231360D5611123D56260
:1016E00015635563104615465360C2E90344C2E9C9
:1016F00008441472C2F814809761946282F83860CA
:10170000FFF70CFF0C4BEB630C4B2B640C4B6B6427
:1017100085F8484002B0BDE8F08100BFD403002046
:101720000000C843E40200200000204300004845B8
:101730000000C845980200206EDBB6424A92E4449D
:101740004A926445000048432DE9F04F2DED028B8D
:101750009F4E91B09F4802F019FD002837DC9E4B48
:101760001B789BB19D4B1B7883B99D4B9D49186895
:10177000FEF716FD50B903F08BF9014604469A486E
:10178000FFF72CFD99482146FFF728FD984DFFF7FC
:10179000ADFA2B780446A3B198B996498D4802F06A
:1017A00059FF914B8B48D9680A2202F09EFF92495B
:1017B000884802F04FFF8D4B8648D9680A2202F014
:1017C000B8FF2C7011B0BDEC028BBDE8F08F8148E2
:1017D00002F00EFFC0B20D28BCD00A28326840F0DB
:1017E000FD82864B002199541A78202A1D4603F168
:1017F0000103F9D0092AF7D0002A3AD06F1E17F852
:10180000014FACB92822214606A804F007FA284661
:101810007B49029402AA04F043FA06AF80463D4693
:10182000B8F1000F13D00A2C07D1764976483BE077
:10183000204604F0E1F83870E1E745F8048B704980
:1018400002AA002004F02CFA01348046E8E7069D45
:101850006E492846FEF7A4FC20B96D495D4802F0A8
:1018600013FF06E06B492846FEF79AFC20B9FFF704
:101870004BFA002333606DE767492846FEF790FC7A
:1018800008B96649EAE766492846FEF789FCC8B9FF
:10189000534B1C68514B1B7823B952492046FEF725
:1018A0007FFC20B15F482146FFF76EFBE1E74A4B22
:1018B00001221A2041461A7003F0B0F85848FFF789
:1018C00049FBD6E758492846FEF76AFC18B9FFF7E6
:1018D00085FE5548F3E755492846FEF761FC80B977
:1018E000FFF77CFE3C4B1A20012183F8008003F0B7
:1018F00095F83D4B4D4883F848803C4B83F8488031
:10190000DDE7DFF8349128464946FEF749FCD0B9B7
:10191000324B1A78AAB901241C70FFF75FFE2E4BD8
:1019200021461A2083F8008003F078F82C4B4049B8
:101930002848C3F8009002F08DFE3E49254802F089
:10194000A3FE3D48BBE73D492846FEF729FC48B9C0
:10195000FFF744FE214B234A83F80080204B374891
:101960001A60ACE736492846FEF71AFC20BB032C68
:1019700001D034495AE7079D2846FFF74BFB002367
:101980000493044610B929462F488DE7089D04A901
:101990002846FFF77FFB10B929462C4884E7FFF75C
:1019A00013FB00283FF465AFE3680499204619440F
:1019B000FFF79CFC224882E725492846FEF7F0FB0A
:1019C0000246002846D1214606A8FFF799FC50E7B9
:1019D00030030020D403002096020020950200204E
:1019E00000000020B57D0008E402002098020020DD
:1019F00094020020108200087C7D0008340300203F
:101A0000B17F0008B57F00081F7E0008C57F000871
:101A1000CA7F0008DF7F0008E67F0008EB7F000830
:101A200060800008BA7D00087080000867800008A8
:101A300075800008898000086F8000089080000889
:101A4000968000089B800008267E00083A7E0008E9
:101A5000DF7D000899492846FEF7A2FB08B901225C
:101A6000B1E797492846FEF79BFB00284ED1022C90
:101A700003D9651E15F0010501D09249D6E6924BB7
:101A80001B690093914B1B690193A8464FF0020913
:101A9000D7F808A0002304A950460493FFF7FAFAE8
:101AA000834608B9514678E7D7F804A088495046DC
:101AB000FEF776FBF0B9B8F1000F1BD1049B009341
:101AC000D84609F102094C4507F10807E0D8FFF7AD
:101AD0007BFA00283FF4CDAEB8F1000F03D0009997
:101AE0007948FFF703FC1DB101997848FFF7FEFB29
:101AF0007348E4E677495046FEF752FB20B91DB91A
:101B0000049B01935D46DCE751463DE77249284658
:101B1000FEF746FB30B9022C01D0704986E67049C9
:101B20007048C1E670492846FEF73AFB002839D1D3
:101B3000022C02D1FFF7DAF808B16C4976E6079C6F
:101B400063492046FEF72CFB58B95F4B1862002210
:101B5000C3E90300DA610122986283F848206248F1
:101B6000ADE65C492046FEF71BFB08B9574BEDE795
:101B70005F492046FEF714FB00287DD15249534AA5
:101B800000230020C1E90333C2E903330B628B62F7
:101B9000136293620123C861D06181F8483082F8F2
:101BA0004830DCE753492846FEF7FAFA28B1524993
:101BB0002846FEF7F5FA002868D1032C01D04F49DA
:101BC00034E64C49DFED578A002328460393FEF79D
:101BD000E7FADFED557A041E03A9089808BFF0EE76
:101BE000678AFFF731FA00283DD09DED038AF7EEB2
:101BF000007AB4EEE78AF1EE10FA34D4B4EEE88A53
:101C0000F1EE10FA2FDC079C39492046FEF7C8FA9E
:101C100080462046FFF7FEF90746B8F1000F29D1AC
:101C2000294B0493294B05934FF000090DF1100A3D
:101C30005AF82940B8F1000F01D0A7420BD12D4925
:101C40002846FEF7ADFAC8B984ED108AB0EE480A0E
:101C50002046FFF723FB09F10103022B4FF0010996
:101C6000E6D128462BE62649264B002C18BF1946FC
:101C7000254819E60028D3D1214685E684ED118A4E
:101C8000B0EE480A2046FFF769FCE4E71F49284602
:101C9000FEF786FA0746002800F0B7801C49284660
:101CA000FEF77EFA002800F0D1801A482946FBE5AD
:101CB0001949BBE51949B9E51949D9E7E77D000894
:101CC000BA800008BF800008E402002098020020CB
:101CD000247E0008DD7D0008E0800008E580000823
:101CE000F28000081781000823810008288100087D
:101CF000EE800008478100085A8000084D810008E6
:101D0000E27E0008F97E00086C7E00086B7F000808
:101D1000627F0008DB810008187F0008397F000817
:101D2000728100080050C34700409C465FED037A73
:101D30001FED037A594A5A4B0492002F059308BFAE
:101D4000F0EE477A8DB992ED0F7A28EE077AF7EE2A
:101D5000006AB4EEE67AF1EE10FA31D4F4EEC77A06
:101D6000F1EE10FA1FD54F4982E79442EBD09C4226
:101D70001BD04FF000080DF1100A5AF828000DB1E1
:101D8000844208D190ED0F0A28EE000A0FBB80EDC7
:101D9000100AFFF783FA08F10103022B4FF0010844
:101DA000EBD148468BE5002DE1D193ED0F7A28EE7B
:101DB000077AF7EE006AB4EEE67AF1EE10FA02D591
:101DC00039493A4870E5B4EEE77AF1EE10FAD0DD21
:101DD000C9E780ED110AFFF7C1FBDCE7531C9F2B1D
:101DE00006D90023324933483360FFF7CDF8B1E418
:101DF0003360314B9854ADE4F7EE007AB4EEE78AE5
:101E0000F1EE10FA42D52D4932E7032C7FF450AFA2
:101E1000DFF8BC900898002303A90393FFF714F997
:101E200000283FF449AF9DED038AB5EEC08AF1EE7C
:101E300010FA7FF641AF002FDED0F1EE047AB4EE57
:101E4000E78AF1EE10FA07D51D4911E7032C7FF45C
:101E500031AFDFF88090DDE7DFED1A7AB4EEE78A84
:101E6000F1EE10FAF0DCDDF81C8017494046FEF771
:101E700097F905464046FFF7CDF80446002D3FF49C
:101E800055AF00287FF452AF41467DE5DFED0F7A74
:101E9000B4EEE78AF1EE10FAE5DDB4E7E4020020E3
:101EA00098020020AD810008898100089A7E000810
:101EB000EB8100080282000834030020977F0008AD
:101EC000747F000800004843EE8000080000C8420C
:101ED0006B7F0008627F00087047000038B50E4B2A
:101EE0001A784FF47A73B3FBF2F30C4A0546106884
:101EF000B0FBF3F000F0A6F8044658B90F2D09D84E
:101F0000024629464FF0FF3000F04AF8044B2046C5
:101F10001D6038BD0120FCE7040000202C000020DB
:101F20000800002008B50B4B1A6842F400721A60D2
:101F30001A6842F480621A601A6842F480721A6069
:101F4000032000F01BF80020FFF7C8FFFFF7C4FFD5
:101F5000002008BD003C0240034A044B11681B7876
:101F60000B441360704700BFEC0400200400002005
:101F7000014B1868704700BFEC0400200749CA688D
:101F800022F4E0620302120403F4E063120C134330
:101F900043F0BF6343F40033CB60704700ED00E0D3
:101FA000164B30B5DC68C4F30224C4F10703251DC9
:101FB000042B28BF0423062D4FF0FF358CBF033CB4
:101FC000002405FA03F321EA0303A54022EA0502EF
:101FD000A340002843EA0203ACBF00F16040084A76
:101FE0004FEA0313B8BF00F00F00DBB2AABF00F541
:101FF0006140135480F8003330BD00BF00ED00E0B5
:1020000014ED00E0002807DB044A4109012300F039
:102010001F00834042F82130704700BF00E100E01C
:1020200000280CDB4309064900F01F002033012281
:10203000824041F82320BFF34F8FBFF36F8F70476B
:1020400000E100E00138B0F1807F0BD24FF0E023D7
:10205000054A5861F02182F8231000200722986178
:102060001A6170470120704700ED00E0002808DB8E
:102070004309044900F01F0001226033824041F807
:102080002320704700E100E0704708B5FFF7FCFF30
:1020900008BD704710B5044650B1437903F0FF0204
:1020A00013B90271FFF7F5FF01236371002010BD22
:1020B0000120FCE770B50446866DFFF759FF94F8E0
:1020C0003530022B054606D08023636501200023AE
:1020D00084F8343070BD23681A6822F016021A6042
:1020E0005A6922F080025A61226C0AB9A26C1AB1B4
:1020F0001A6822F008021A601A6822F001021A60B7
:102100002368186810F0010007D1E26D3F23934067
:10211000B360012384F83530D9E7FFF729FF401B6E
:102120000528EDD920230320636584F83500CEE728
:1021300090F83530022B03D080234365012070478F
:102140000268052380F83530136823F0010313601B
:1021500000207047044A5169014208B502D050611D
:1021600001F0BCF908BD00BF003C01402DE9F3417E
:10217000044640B30368DE0710D423689D075BD490
:102180002368190700F19D8023685A0700F1BD807C
:10219000A369002B40F0248100202CE08D4B9A682D
:1021A00002F00C02042A07D09A6802F00C02082AF6
:1021B0000BD15B68590208D5864B1B689A03DCD5A6
:1021C0006368002BD9D1012015E06368814DB3F518
:1021D000803F13D12B6843F480332B60FFF7C8FE98
:1021E0007C4E054633689B03C7D4FFF7C1FE401BF6
:1021F0006428F7D9032002B0BDE8F081B3F5A02F21
:1022000004D12B6843F480232B60E3E72A6822F48F
:1022100080322A602A6822F480222A60002BDDD1D5
:10222000FFF7A6FE06462B689F03A6D5FFF7A0FE84
:10223000801B6428F7D9DDE7664B9A6812F00C0F13
:1022400007D09A6802F00C02082A11D15B685D027F
:102250000ED4604A1368990702D5E368012BB2D106
:102260001368216923F0F80343EAC103136087E789
:10227000E268594BB2B101221A60FFF779FE554D61
:1022800006462B689B0707D52B68226923F0F803C5
:1022900043EAC2032B6073E7FFF76AFE801B022844
:1022A000EFD9A7E71A60FFF763FE4A4E0546336889
:1022B0009F077FF565AFFFF75BFE401B0228F6D94D
:1022C00098E76269444B82B10122C3F8802EFFF780
:1022D0004FFE404E0546736F9B073FF555AFFFF726
:1022E00047FE401B0228F6D984E7C3F8802EFFF78B
:1022F0003FFE384E0546736F9F077FF545AFFFF7EA
:1023000037FE401B0228F6D974E7324B1A6C12F0E4
:10231000805228D101921A6C42F080521A641B6CD0
:1023200003F080530193019B01272C4D2B68D805A6
:102330001BD5A368274D012B27D12B6F43F0010339
:102340002B67FFF715FE234E054641F28838336FA1
:102350009A0739D5002F3FF41BAF1E4A136C23F0A8
:102360008053136414E70027DFE72B6843F480737E
:102370002B60FFF7FDFD06462B68D905D9D4FFF782
:10238000F7FD801B0228F7D934E7052B04D12B6F0A
:1023900043F004032B67D0E72A6F22F001022A677B
:1023A0002A6F22F004022A67002BCAD1FFF7E0FD52
:1023B00041F2883806462B6F9B07CBD5FFF7D8FD37
:1023C000801B4045F7D915E7FFF7D2FD401B40457C
:1023D000BDD90FE7003802400000474200700040BE
:1023E000374DAA6802F00C02082A3ED0022B354B6A
:1023F0004FF000021A662BD1FFF7BAFD06462B6894
:1024000099011FD4D4E907321343626A43EA821365
:10241000E26A43EA0263A26A5208013A43EA0243CB
:102420006B60284B264D01221A66FFF7A1FD04467A
:102430002B689A013FF5B0AEFFF79AFD001B02280A
:10244000F6D9D7E6FFF794FD801B0228D7D9D1E64D
:10245000FFF78EFD04462B689B017FF59DAEFFF7CD
:1024600087FD001B0228F6D9C4E6012B3FF4ABAE72
:102470006B68E26903F4800191427FF4A4AE216AA3
:1024800003F03F028A427FF49EAE616A47F6C07253
:102490001A40B2EB811F7FF496AEA26A520803F491
:1024A0004031013AB1EB024F7FF48DAEE26A03F0A6
:1024B0007063B3EB026F14BF012000209BE600BFE6
:1024C0000038024000004742134908B58B6803F00A
:1024D0000C03042B1CD0082B1CD14A684B6849689C
:1024E00013F4800314BF0D480D48C1F3881118BFC1
:1024F000002302F03F02A1FB0001FEF7BDFB064BEB
:102500005B68C3F3014301335B00B0FBF3F008BD2C
:102510000248FCE70248FAE70038024000127A005D
:102520000024F4002DE9F0410D46044610B90120C5
:10253000BDE8F081434B1A6802F007028A4228D3B3
:1025400021688F072DD4C80740D43E4B1A6802F08B
:102550000702AA4265D8226851076BD4130707D532
:10256000394A2169936823F4604343EAC1039360C5
:10257000FFF7AAFF344B354A9B68C3F30313D35CC0
:10258000D840334B1860334B1868FFF7A7FC002086
:10259000CEE7CAB21A701B6803F007038B42C6D19C
:1025A000CEE7294B11F0040F1EBF9A6842F4E052A7
:1025B0009A600E0742BF9A6842F460429A609A6835
:1025C000A06822F0F00202439A60BCE762681E4BEA
:1025D000012A1CD11B6813F4003FA8D01A4EB3681F
:1025E00023F003031343B360FFF7C2FC41F28838C2
:1025F0000746B368626803F00C03B3EB820FA4D004
:10260000FFF7B6FCC01B4045F3D9032090E7911EAD
:1026100001291B6802D813F0007FDEE713F0020FD8
:10262000DBE7EAB21A701B6803F00703AB427FF4E2
:102630007EAF90E70449E0688B6823F4E0530343DE
:102640008B608BE7003C0240003802402C8400087D
:102650002C00002008000020044B054A9B68C3F3AF
:102660008223D35C034A1068D84070470038024088
:10267000248400082C000020044B054A9B68C3F307
:102680004233D35C034A1068D84070470038024098
:10269000248400082C00002070477047036870B540
:1026A000DD681E69B10704460DD5AA070BD56FF08A
:1026B00002021A61012202779B699B0769D000F030
:1026C000E6FD00232377710710D56A070ED523682E
:1026D0006FF004021A61022222779B6913F4407F93
:1026E00020465CD000F0D3FD0023237733070FD5BD
:1026F00028070DD523686FF008021A61042222779B
:10270000DB699907204650D000F0C1FD00232377F4
:10271000F20610D5EB060ED523686FF010021A6191
:1027200008222277DB6913F4407F204643D000F073
:10273000AEFD00232377F00708D5E90706D5236807
:102740006FF001021A61204600F07EFD320608D5C6
:102750002B0606D523686FF080021A61204600F030
:102760009EF8700608D5690606D523686FF040020A
:102770001A612046FFF791FFB20622D5AB0620D59D
:1027800023686FF0200220461A61BDE8704000F017
:1027900085B800F07AFD2046FFF77EFF91E700F054
:1027A00074FD2046FFF778FF9EE700F06EFD20469F
:1027B000FFF772FFAAE700F068FD2046FFF76CFF05
:1027C000B7E770BD1D4A036890420ED0B0F1804F4C
:1027D0000BD0A2F57C42904207D002F58062904275
:1027E00003D002F58062904208D14A6823F070035A
:1027F0001343CA6823F4407313430AE0104A90421B
:10280000F7D002F580629042F3D002F580629042E8
:10281000EFD04A6923F0800313438A68C2620A68D2
:102820008262064A904204BF0A690263026842F06B
:10283000040202600122426103607047000001400F
:102840000040014010B5044630B390F83D3003F02D
:10285000FF021BB980F83C2001F074F902232068C4
:1028600084F83D30211DFFF7ADFF012384F8463089
:10287000002084F83E3084F83F3084F8403084F8FB
:10288000413084F8423084F8433084F8443084F88E
:10289000453084F83D3010BD0120FCE7704770479B
:1028A000026802F10C0353E8003F23F490730C32EA
:1028B00042E8003102680029F2D102F1140353E822
:1028C000003F23F0010302F1140C4CE80031002911
:1028D000F3D1036B012B0BD102F10C0353E8003F42
:1028E00023F0100302F10C0C4CE800310029F3D165
:1028F000202380F842300023036370470268C168D8
:1029000038B5136923F440530B43136105468368BC
:102910000069D168034368690343E86921F41641FB
:1029200021F00C0103430B43D3605369A96923F4DD
:1029300040730B4353611F4B9A4203D003F58063EE
:102940009A4224D1FFF798FEEA691921B2F5004FA7
:10295000D5E90043A0FB01011CD1DA184FF00005B6
:1029600045EB0503FEF788F96422B0FBF2F102FBA8
:102970001103DB003233B3FBF2F303F007025B0019
:1029800002EB011203F4F8731344A36038BDFFF7A0
:1029900063FED9E79A009B0FFEF76EF96422B0FB45
:1029A000F2F102FB11031B013233B3FBF2F303EB31
:1029B0000113EAE700100140F7B505460C4617463B
:1029C0001E462A68136834EA030301D1002021E07F
:1029D000701CF7D0FFF7CCFAC01B86421CD3DEB1C7
:1029E0002B68DA685107ECD5802CEAD0402CE8D06F
:1029F0001A681207E5D5002401941A6801925B68F1
:102A000001932846019BFFF74BFF08236B6485F871
:102A10004040012003B0F0BD0320FBE7704710B534
:102A2000044648B390F8413003F0FF021BB980F828
:102A30004020FFF7F3FF2268242384F84130D36855
:102A400023F40053D3602046FFF758FF23681A6928
:102A500022F490421A615A6922F02A025A61DA6815
:102A600042F40052DA6000202023606484F8413090
:102A700084F84230606310BD0120FCE710B50446C5
:102A800068B390F8413003F0FF021BB980F8402092
:102A9000FFF7C4FF2268242384F84130D36823F46D
:102AA0000053D3602046FFF729FF23681A6922F4F8
:102AB00090421A615A6922F022025A615A6942F020
:102AC00008025A61DA6842F40052DA6000202023DA
:102AD000606484F8413084F84230606310BD0120A6
:102AE000FCE72DE9F843984690F84130202B044646
:102AF0000E4617463FD100293FD0002A3DD0212362
:102B00000025456480F84130FFF732FAA368A784B6
:102B1000B3F5805F8146E78403D123690BB935465D
:102B20001E46E38C9BB253B943464A464021204699
:102B3000FFF742FF202350B984F841300AE04346B2
:102B40004A4680212046FFF737FF28B1202384F82A
:102B500041300320BDE8F88322684EB935F8023BC6
:102B6000C3F308035360E18C013989B2E184D8E7EB
:102B700016F8013BF6E70220ECE70120EAE790F8BF
:102B80004130202B10D189B182B1C284016282848C
:102B9000016800232122436480F84120CA6842F082
:102BA0008002CA60184670470220704701207047B3
:102BB00008B5806B0023C38501F0FCF908BD7047A0
:102BC00090F84230222B07B542D181680268836AAF
:102BD000B1F5805F3FD1016900293FD15268C2F34E
:102BE000080223F8022B8362C38D013B9BB2C3858D
:102BF000002B2DD10268D16821F02001D160D1686D
:102C000021F48071D160516921F0010151612022CC
:102C100080F842204363026B012A026828D10363D3
:102C200002F10C0353E8003F23F0100302F10C0CF7
:102C30004CE800310029F3D11368DB0605D501917A
:102C40001368019353680193019B818DFFF7B7FFD0
:102C500003B05DF804FB39B9016929B95268D2B2F1
:102C60001A70836A0133BEE7526802F07F02F7E709
:102C700001F09AF9ECE7000003681A6873B51607CB
:102C8000D9685D69044608D1960668D58D0666D573
:102C900002B0BDE87040FFF793BF05F0010001F4FA
:102CA000907505435BD0D60705D5CD0542BF636C53
:102CB00043F001036364530704D518B1636C43F018
:102CC00002036364960704D518B1636C43F00403F0
:102CD0006364150707D501F0200303431EBF636C2F
:102CE00043F008036364636C002B32D0920604D572
:102CF0008B0602D52046FFF763FF26687369626C76
:102D000003F0400302F0080253EA0205204622D0F5
:102D1000FFF7C6FD73695E0618D5226802F1140339
:102D200053E8003F23F04003143242E80031002909
:102D3000F3D1E06B50B1774B0365FFF7F9F940B180
:102D4000E06B036D02B0BDE870401847204601F00B
:102D500031F902B070BD01F02DF96564F9E7206B1F
:102D6000012840F09B80D50640F19880C80640F1CC
:102D70009580002201921A6801925A680192019A84
:102D80005A69A18D520656D5E06B0268526892B21C
:102D9000002A47D0914245D9E285C269B2F5807FC9
:102DA00036D003F10C0252E8002F22F4807203F1B6
:102DB0000C0040E800210029F3D103F1140252E88D
:102DC000002F22F0010203F1140040E80021002945
:102DD000F3D103F1140252E8002F22F0400203F174
:102DE000140040E800210029F3D1202284F8422079
:102DF000216303F10C0252E8002F22F0100203F1CC
:102E00000C0040E800210029F3D1E06BFFF752F9F4
:102E100002236363E38DA18DC91A89B22046FFF7AF
:102E2000CEFE96E7914294D1C369B3F5807F90D1ED
:102E300002236363F2E7E28DE08D80B292B2002854
:102E400087D0891A89B2002983D003F10C0252E895
:102E5000002F22F4907203F10C0545E800200028B1
:102E6000F3D103F1140252E8002F22F0010203F122
:102E7000140545E800200028F3D1202284F84220E0
:102E8000206303F10C0252E8002F22F0100203F13C
:102E90000C0545E800200028F3D1C9E7160628D51F
:102EA0000D0626D594F84120212A7FF452AFA1685F
:102EB000226AB1F5805F17D12169A9B932F8021BE6
:102EC000C1F3080159602262E28C013A92B2E284B5
:102ED000002A7FF43EAFDA6822F08002DA60DA6816
:102EE00042F04002DA6034E7511C216212785A60E5
:102EF000EAE750067FF52DAF4A067FF52AAFDA687C
:102F000022F04002DA60202384F84130204601F0AC
:102F10004EF81EE7B12B000890F84030012B11D07D
:102F20000268242380F84130D36823F00C0343F077
:102F30000803D360202380F84130002380F840301C
:102F4000184670470220704790F84030012B11D08E
:102F50000268242380F84130D36823F00C0343F047
:102F60000403D360202380F84130002380F84030F0
:102F7000184670470220704790F8412090F84200B0
:102F800010437047C285002382850269436422236F
:102F900080F84230816203681AB1DA6842F48072C4
:102FA000DA605A6942F001025A61DA6842F020029E
:102FB000DA600020704770B590F84260202E07D18B
:102FC00041B13AB100240463FFF7DCFF204670BD35
:102FD0000220FCE70120FAE7836810B504462BB114
:102FE0000322014698470023C4E9023310BD8368D9
:102FF00010B5044613B1032201469847204610BD80
:103000001B4B984221D0B0F1804F20D0A3F57C43D8
:1030100098421ED003F5806398421CD003F580636C
:1030200098421AD003F59A33984218D003F580637A
:10303000984216D003F58063984214D04FF6FF7380
:103040004FF6FF72934210D1FEE70023F8E701200C
:103050007047022070470320704704207047052006
:10306000704706207047072070470020704700BF58
:1030700000000140014670B5044651F8100FFFF7FB
:10308000BFFF0546084600F08FFC094A002342F8BE
:10309000253004F16006E36004F1B005B54204D0C8
:1030A000103D2846FFF7A3FFF8E7204670BD00BF9C
:1030B000F0040020F8B504460846FFF7A1FF236995
:1030C00003B1FEE71B4D84F82C3004F10C0245F8E7
:1030D000202004F110060E22C4E90C33C4E90E339B
:1030E000C4E91033C4E916232161A36484F84C3089
:1030F00084F84D30E460304600F0C6FB04F1600512
:1031000004F1B00728461035FFF766FFBD42F9D13C
:103110000023C4E900334FF6FF72C4E90632C4E964
:103120000833A36063618023A3623046BDE8F840A2
:10313000FFF788BBF004002010B5074C206810B1E1
:103140000430FFF7ABFAA06920B1BDE810400430AD
:10315000FFF7A4BA10BD00BFF0040020034B1868AD
:1031600010B10430FFF79ABA704700BFF004002096
:10317000034B586810B10430FFF790BA704700BF96
:10318000F0040020034B986810B10430FFF786BAB2
:10319000704700BFF0040020034BD86810B1043022
:1031A000FFF77CBA704700BFF0040020034B18699A
:1031B00010B10430FFF772BA704700BFF00400206E
:1031C000034B586910B10430FFF768BA704700BF6D
:1031D000F0040020034BD86910B10430FFF75EBA49
:1031E000704700BFF00400200022C0E90022C0E9BF
:1031F00002227047F8B504460E4600F1600500F162
:10320000B00728461035FFF7EFFFBD42F9D1002384
:10321000204623613146FFF74DFF2046F8BD826806
:1032200010B50AB904F06EFDBDE81040C368184738
:1032300008B500B9FEE700F025FB0068836E13B106
:103240006030FFF7ECFF08BDFFF7F2BF10B500B923
:10325000FEE7037F013B072B10D8DFE803F00414DF
:103260000F100F0F0F12012400F00CFB0068063442
:1032700000EB041083680BB1FFF7D1FF10BD0324EE
:10328000F2E70424F0E70224EEE7FFF7DFBFFFF7E1
:10329000DDBF01F00FBC01F015BC000086B00023BB
:1032A000052853D8DFE800F003111E2B38450093A2
:1032B000274B28481A6B42F001021A631B6B03F07C
:1032C00001030093009B06B070470193204B2248F6
:1032D0001A6B42F002021A631B6B03F002030193A4
:1032E000019BF0E702931A4B1C481A6B42F0040250
:1032F0001A631B6B03F004030293029BE3E703933F
:10330000134B17481A6B42F008021A631B6B03F049
:1033100008030393039BD6E704930D4B11481A6BE4
:1033200042F010021A631B6B03F010030493049B1A
:10333000C9E70593064B0C481A6B42F080021A63EA
:103340001B6B03F080030593059BBCE70020BAE7E5
:103350000038024000000240000402400008024021
:10336000000C024000100240001C0240F8B5134956
:10337000134F064600F03CFAFFF742FE57F82030A4
:10338000054673B9B020FFF784FF0C490446304668
:1033900000F02EFA01462046FFF72CFF57F82530A3
:1033A0001C601C6844B12046FFF764FE2046B02133
:1033B000BDE8F840FFF76FBFF8BD00BF14850008F7
:1033C000F004002037B5FEF7D3FD4FF0E0250446AA
:1033D000AB690093FEF7CCFDAB6901936969844248
:1033E00001F101014FF47A7308D0019A8A1A5A4305
:1033F000B2FBF1F203FB002003B030BD009A8A1A41
:103400005A43B2FBF1F203FB0420F5E7FEF7B0BD2F
:10341000704708B5FEF7A0FDFEF737FEFFF7F8FF8F
:1034200008BD704784B0114B00220192196C41F025
:1034300080511964196C01F0805101910199029237
:10344000596C41F480415964596C01F480410291F6
:10345000029903921A6B42F480521A631B6B03F4B5
:1034600080530393039B04B0704700BF00380240B1
:103470000C4BD3F8FC20D2015EBFD3F8FC2042F005
:103480008072C3F8FC20084B00225A601A6842F090
:1034900001021A6000BF00BF00BF5868B0FA80F098
:1034A0004009704700ED00E0001000E008B5FFF7AC
:1034B000B9FFFFF7DDFFFEF735FDFFF7B2FF00F0C4
:1034C00015FEBDE808400148FEF7E4BD24000020D9
:1034D0000023C0E90033C0E902337047002301280C
:1034E00003F101020AD11422DBB25343054A181D2D
:1034F0001044816829B11A441369184740081346DB
:10350000EDE77047100500200120FEF723BE0220E2
:10351000FEF720BE0420FEF71DBE0820FEF71ABEEF
:103520001020FEF717BE08B52020FEF713FE40203E
:10353000FEF710FE8020FEF70DFE4FF48070FEF7C0
:1035400009FEBDE808404FF40070FEF703BE38B531
:1035500006244FF48065A8B2FEF7FCFD013C4FEA5B
:103560004505F8D138BD0000344A104608B5062399
:1035700000F8043BFFF7ACFF072302F118001375B6
:10358000FFF7A6FF082302F12C0082F82830FFF78E
:103590009FFF092302F1400082F83C30FFF798FFBB
:1035A0000A2302F1540082F850301721FFF790FFF0
:1035B00002F1680082F86410FFF78AFF02F17C00D4
:1035C00082F87810FFF784FF02F1900082F88C10E7
:1035D000FFF77EFF02F1A40082F8A010FFF778FF4A
:1035E00002F1B80082F8B4102821FFF771FF02F150
:1035F000CC0082F8C810FFF76BFF02F1E00082F800
:10360000DC10FFF765FF02F1F40082F8F010FFF71D
:103610005FFF02F5847082F80411FFF759FF02F58D
:103620008E7082F81811FFF753FFBDE8084002F5CD
:10363000987082F82C11FFF74BBF00BF10050020D7
:1036400038B5054CA4F5A075143C201DFFF7CFFC40
:10365000AC42F9D138BD00BF5006002030B591FA18
:10366000A1F391FAA1F1B3FA83F3C4685B000325D7
:10367000B1FA81F105FA03F3490024EA03038A4011
:103680001A43C26030BD431C04D00C3151F80C3CCD
:103690005A1C01D100207047834201F10C01F5D181
:1036A00001207047F8B5471C06460D4600D1FEE7DD
:1036B00000F00F02414BC0F3031053F82240FFF714
:1036C000EDFD94FAA4F3B3FA83F3876803225B0059
:1036D00002FA03F394FAA4F2B2FA82F227EA030799
:1036E0005200032393403B4305F007018360032905
:1036F00003D8DFE801F05F612C03FEE7032394FAAF
:10370000A4F2B2FA82F206685200032707FA02F224
:1037100026EA020694FAA4F2B2FA82F25200934028
:10372000013933430129036005D843682A074CBF98
:103730002343A3434360C5F30112012A02D0022AA6
:1037400018BF00222146BDE8F840FFF787BFC5F348
:1037500006227F2A01D10223D1E7360716D5230A94
:1037600093FAA3F6B6FA86F6476A93FAA3F3B6007D
:103770004FF00F0CB3FA83F30CFA06F69B0027EA1E
:10378000060602FA03F333434362E4E794FAA4F330
:10379000B3FA83F3066A9B000F2707FA03F326EABE
:1037A000030694FAA4F3B3FA83F39B009A403243DE
:1037B0000262D0E70023A2E70123A0E7E483000828
:1037C000431C06D17047834202D18968FFF76ABF64
:1037D0000C310B685A1CF6D1FEE70B685A1C01D15C
:1037E00000207047834201D1486870470C31F4E7EC
:1037F000431C01D0FFF7F1BF002070474B6813B99D
:103800004FF0FF307047834201D1086870470C3198
:10381000F4E708B1FFF7F2BF4FF0FF3070470346FF
:103820008B42084604D01BB100290CBF184600206B
:10383000704700001049D1F8883043F47003C1F894
:1038400088300E4B1A6842F001021A6000229A601A
:103850001A6822F0847222F480321A60084A5A6090
:103860001A6822F480221A604FF43F02DA604FF0A7
:1038700000638B60704700BF00ED00E0003802403D
:10388000103000240438704703683F4A934288B0E0
:103890001BD1002200923D4A516C41F0010151645C
:1038A000526C02F001020092009A394A93421BD1F5
:1038B00000230593354B5A6C42F480325A645B6C9A
:1038C00003F480330593059B4CE0B3F1804F1BD18B
:1038D000002201922D4A116C41F001011164126C19
:1038E00002F001020192019A2A4A93421BD100235D
:1038F0000693264B5A6C42F400325A645B6C03F414
:1039000000330693069B2DE0234A93421BD10022ED
:1039100002921E4A116C41F002011164126C02F015
:1039200002020292029A1D4A93421BD1002307937E
:10393000164B5A6C42F480225A645B6C03F4802369
:103940000793079B0EE0164A93420DD10023039381
:103950000E4B1A6C42F004021A641B6C03F0040351
:103960000393039B08B070470E4A93429DD10023F6
:103970000493064B1A6C42F008021A641B6C03F0A5
:1039800008030493049BEDE7000001400038024067
:103990000040014000440140000400400048014054
:1039A00000080040000C00400368234A93420ED1F7
:1039B00022494A6C22F001024A64214A93420ED104
:1039C00002F57842536C23F4803353647047B3F1AB
:1039D000804F0DD119490A6C22F001020A64194A7C
:1039E00093420DD102F57442536C23F40033ECE79B
:1039F000154A93420DD111490A6C22F002020A6461
:103A0000124A9342E2D102F57042536C23F48023B0
:103A1000DBE70F4A934206D102F50C32136C23F018
:103A20000403136470470B4A9342C6D102F50B326C
:103A3000136C23F00803F4E7000001400038024053
:103A400000400140004401400004004000480140A3
:103A500000080040000C0040431C21D0184B984245
:103A600021D00BD8A3F5006398421ED003F58063E4
:103A700098421CD0B0F1804F1BD0FEE7114B98420A
:103A800019D008D8A3F58843984214D003F5804391
:103A9000984212D0F1E70C4B9842EED11A207047B1
:103AA0006FF00D007047322070471D2070471E20B8
:103AB00070471C207047192070471820704700BFBE
:103AC000000C00400044014000480140431C21D04C
:103AD000194B984221D010D8A3F5784398421ED0B4
:103AE00007D8B0F1804F1CD0A3F5806398421AD05C
:103AF000FEE7124B984218D0FAE7114B984216D0C5
:103B000003F58063984214D0A3F500639842EFD187
:103B1000182070476FF00D0070471B2070471E2063
:103B200070471C2070471D207047322070471920B5
:103B300070471A20704700BF00000140000C004091
:103B40000044014038B5FFF79FFE04460068FFF7C8
:103B500083FFD4E91212FEF723FA2068FFF77CFFF7
:103B6000FEF750FA22681046FFF7B0FF05461046F0
:103B7000FFF772FF85420BD02846D4E91212FEF7F8
:103B80000FFA2068FFF7A2FFBDE83840FEF73ABA07
:103B900038BD00002DE9F04F8B4685B0924699461E
:103BA000044618B9002005B0BDE8F08F6749406DA4
:103BB000FFF71EFE66490646A06DFFF719FE654930
:103BC0000746E06DFFF714FE63490546206EFFF7D8
:103BD0000FFE8046002EE5D0A36D013301D0002FEB
:103BE000E0D0E36D013301D0002DDBD0236E013333
:103BF00002D0B8F1000FD5D030463946FFF70FFE9E
:103C00000646206020B90146FFF709FE06462060FF
:103C100029463046FFF703FE41462060FFF7FFFDCF
:103C200020600028BED04D4B984254D103F5943308
:103C30005A6A42F010025A625A6A22F010025A621C
:103C400000220192596C41F0100159645B6C03F041
:103C500010030193019B134625223C49606D84F8B3
:103C6000653084F86420FFF7ABFD1FB13849A06DC3
:103C7000FFF7A6FD2DB13749E06DFFF7A1FD4FF429
:103C80008075B8F1000F05D03349206E45F40075FA
:103C9000FFF796FD94F86520314B94F96400C4F861
:103CA0000CA0261D43F822602368C4E9013B0E9B4B
:103CB0000022C4E904390C23C4E90635226201213B
:103CC000FEF76EF93046002F3CD1FEF7D7FEB0FA72
:103CD00080F0400967E7234B984217D103F5FA3388
:103CE0001A6A42F400321A621A6A22F400321A6224
:103CF000002202921A6C42F400321A641B6C03F424
:103D000000330293029B26220123A6E7164B98421A
:103D10007FF448AF03F592335A6A42F020025A62A8
:103D20005A6A22F020025A62002203925A6C42F030
:103D300020025A645B6C03F020030393039B472229
:103D400002238AE7FEF76BFEC1E700BFCC840008C0
:103D500084840008608400083C840008001001404E
:103D60005006002000440040001401401FB50C4ADA
:103D70000C4B92680C4953F822402046FFF738FD5F
:103D8000002350B109481A4644654FF41651CDE955
:103D90000233CDE90033FFF7FDFE04B010BD00BFD4
:103DA0000087000840870008CC840008300000200D
:103DB00008B5074B90F8652053F82200FFF7DCF8B0
:103DC00000F02200A0F122035842584108BD00BF74
:103DD0005006002008B5074B90F8652053F82200E4
:103DE000FFF7CAF800F02100A0F121035842584122
:103DF00008BD00BF500600202DE9F843294D0646B6
:103E00000C46FEF7B5F895F86530022B074614D836
:103E100095F86520244B53F82250A5F1040840463C
:103E2000FFF7D8FF002836D14FF47A73A2B231469B
:103E30002846FEF756FE50B90AE01C4A1C4B926811
:103E40001C4953F822804046FFF7D2FCE0B9002419
:103E50002046BDE8F88359F8232052B11549404661
:103E6000FFF7C6FC95F8653059F8232012688242A6
:103E70000ED00133DBB2022B85F86530EBD9FFF7AA
:103E800075FF0028C4D1E2E7DFF81C900023F2E7B9
:103E9000022BBDD9F3E7FEF76BF8C01BB0F57A7FB4
:103EA000BDD3D4E730000020500600200087000872
:103EB00040870008CC84000870B50E46054610B94E
:103EC0004FF0FF3070BDFFF773FF04460028F7D1B5
:103ED0002946012211F8663F337095F86500034BBF
:103EE00053F82000FFF767F82046EBE75006002064
:103EF00038B50D460446B8B1FFF75AFFA0B994F99A
:103F00006400E564FEF78CF894F86500074B04F153
:103F1000660153F820000122FFF74DF894F9640080
:103F2000BDE83840FEF76EB838BD00BF500600202F
:103F300038B515460446B8B1016590F96400FEF73E
:103F40006FF8E36EB4F8761094F8650013FA81F117
:103F5000064BAAB253F82000FEF711FE94F9640054
:103F6000BDE83840FEF74EB838BD00BF500600200F
:103F700048B1836D013306D190F86520024B53F8A8
:103F80002200FEF7C9BF70475006002048B1836D7C
:103F9000013306D190F86520024B53F82200FEF75A
:103FA000D3BF704750060020836C04381847C36C99
:103FB0000438184730B5044650F804391D6815F028
:103FC000010585B012D0002200921A6800925B6849
:103FD0000093009BFFF7ECFE40BB012204F162015D
:103FE000204605B0BDE83040FEF7E5BF196811F086
:103FF000020106D001951A6801925B680193019B4A
:10400000E8E71A6812F0040206D002911A680292D8
:104010005B680293029BDDE719680907DAD5039212
:104020001A6803925B680393039BD3E705B030BD26
:1040300008B52520FEF71AF8024B1868BDE80840BD
:10404000FEF71ABE5006002008B52620FEF70EF82F
:10405000034B586818B1BDE80840FEF70DBE08BD17
:104060005006002008B54720FEF700F8024B98687C
:10407000BDE80840FEF700BE500600200A4903468E
:10408000086810B50344EFF30882934205D9074B43
:104090000C221A604FF0FF3010BD054A054C121B70
:1040A0009342F4D20B60F7E7AC000020D008002068
:1040B00000000120000400004FF0FF3070474FF473
:1040C00000534B600020704701207047002070476C
:1040D00000207047FEE70000024B16221A604FF0E6
:1040E000FF307047D00800200120704710B594B011
:1040F0001422002109A801F091FD1422002103A837
:1041000001F08CFD1F4B00220192196C41F080518F
:1041100019641B6C1C4903F080530193019B0292AC
:104120000B6823F4404343F400430B600B6803F433
:1041300040430293029B012110230820CDE90B1379
:10414000A823CDE9100302244FF0040C072308A88C
:10415000CDE90E42CDE912C30894FEF707F800B18D
:10416000FEE70F23CDE903344FF48053CDE9063049
:104170000590214603A8FEF7D5F900B1FEE714B07B
:1041800010BD00BF0038024000700040B0F8083198
:10419000B0F80421981A00F03F007047B0F80831D9
:1041A000B0F804219BB293421ABFD0F8FC30985C5F
:1041B0004FF0FF30704790F80631B0F80A01C0B2F6
:1041C000834227BFC3F13F03C018C01A00F1FF307C
:1041D000704707B503688DF807105B6801220DF181
:1041E0000701984703B05DF804FB13B50DF1070113
:1041F0000446FFF761FE88B9B4F87430B4F8702053
:10420000013303F03F03934208D0B4F87420A16E49
:104210009DF8070092B28854A4F8743002B010BD23
:10422000B0F87620816F11FA82F202F03F0210B5E9
:10423000A0F87620B0F87610B0F8722089B28A42E1
:104240001AD0B0F87640B0F87610A4B24032121B03
:10425000544289B204F03F0402F03F02C1F1400130
:1042600058BF62428A4228BF0A4682670349FFF765
:104270005FFE4FF0FF3010BD0020FCE72142000838
:104280002DE9F843036804469B688846164698471C
:1042900001232374D4F8EC30B4F80671013381465D
:1042A000C7F1400709D194F8113133B1002384F8E4
:1042B000113104F19400FFF75BFE236820469B68F0
:1042C00098470028F9D03546BD4225D84D4523D81A
:1042D000B4F80631D4F800015A19402A184430D8ED
:1042E0002A46414601F063FD2F46B4F806311D44CD
:1042F00005F03F05A4F8065104F194052846FFF7A0
:1043000069FD30B91649C4F80C713A462846FFF7E2
:104310000FFE3046BDE8F8834F45236828BF4F465F
:104320003A4641465B6820469847236820469B688A
:104330009847ED1BB844B4F806718146C7F14007B1
:10434000C2E7C3F140073A46414601F030FDD4F8D8
:104350000001EA1B08EB070101F029FDC5E700BFDA
:1043600021420008C0F8F030009BC0F8F4309142C0
:1043700008BF4FF0FF3100F11403C0E93A21C0F843
:10438000FC3000F154020023A0F80831C0E94023BA
:10439000A0F80A317047000037B54FF0000C4FF419
:1043A0007A75C0E901C5069C034D05600094FFF7CE
:1043B000D9FF03B030BD00BF18880008037C70B57A
:1043C00004460D46A3B1FDF7D3FD0646B4F8062119
:1043D000B4F80A319BB29A420AD0002DF8D0FDF70A
:1043E000C7FD801B8542F1D8B4F80A31A4F8063124
:1043F00070BD0021FFF7E2BFCBB2312B08D80E4AC7
:1044000052F8233001F4E0611943C0F8EC10704712
:1044100001F0C002C02A0CD1CF2B0AD8074B01F003
:104420003F0201F4E06153F82220034B53F822309D
:10443000EAE74FF0FF31E8E740870008008700080F
:10444000CBB2312B08D80E4A52F8233001F4E06188
:104450001943C0F8E810704701F0C002C02A0CD11F
:10446000CF2B0AD8074B01F03F0201F4E06153F86B
:104470002220034B53F82230EAE74FF0FF31E8E700
:10448000408700080087000873B54FF47A7316461A
:104490000022C0E901231D4B03604FF0FF33C0F839
:1044A000EC301B4B984204460D4615D1C321FFF753
:1044B000A3FFC221FFF7C4FF012E4FF0FF3308BF57
:1044C000C4F8EC3000932046D4E93A214FF0FF3392
:1044D000FFF748FF02B070BD0E4B0F499A680F4BB3
:1044E00053F82200FFF784F9854202D1C321204608
:1044F000DDE70B492846FFF78CF90749C4F8EC00C3
:104500002846FFF786F9C4F8E800D5E718880008C0
:104510005C06002000870008CC8400084087000863
:1045200084840008D0F8EC30013310B504460ED175
:104530000368DB68984794F8113143B9012384F884
:10454000113104F19400BDE81040FFF71FBD10BD0C
:104550007FB502F00703023BDBB2042B144680F860
:10456000122198BF204AC0F8141198BFD25C04F001
:10457000300388BF0022302B054607D101324FF4AB
:10458000C063082A09D0092A24D0FEE714F02003CA
:1045900025D001324FF48063F3E70022E87C0390DA
:1045A000A87C0290C4F3C004687C019005F19406D5
:1045B000640300943046FFF7EDFA85F8100188B1E6
:1045C0002846FFF7AFFF0949304604B0BDE8704008
:1045D000FFF78EBC4FF48052E0E71A46DEE7082A68
:1045E000FBD0D2E704B070BD08880008EB4100089A
:1045F00010B50446FFF796FFB4F80821B4F804316B
:1046000092B29A421FBFD4F8FC20D05C013303F071
:104610003F0314BFA4F804314FF0FF3010BD000079
:10462000024903480022FFF72FBF00BF00440040AB
:104630005C06002070B505460C46084649B1FBF7FC
:10464000B9FD2B680246214628465B68BDE87040EC
:10465000184770BD08B5FFF7EDFF08BD03681B687C
:104660001847000008B50249FFF7E4FF08BD00BF86
:104670001E82000838B50546FFF7DCFF04462846D1
:10468000FFF7F0FF204438BDFFF7F4BF70B50D46CB
:10469000144630B1461E012E05D811462846FFF7B4
:1046A000ABFB204670BD03685B689847F9E730B5FF
:1046B0008BB00023012A0C468DF8243098BF0A22C3
:1046C00009A92546B4FBF2F404FB125303F0FF03DF
:1046D000092B94BF30333733DBB2AA4201F8013DD6
:1046E000EFD9FFF7A7FF0BB030BD2DE9F04107462A
:1046F0000E4614462AB90368BDE8F0411B68C9B2EA
:1047000018470A2A05D1002905DBBDE8F041FFF76B
:10471000CEBFD2B2F9E72D21FFF7A0FF2246054612
:1047200071423846FFF7C3FF2844BDE8F081FFF728
:10473000DCBF38B50546FFF7D8FF04462846FFF72B
:1047400091FF204438BD000070B5B4EE400AF1EE90
:1047500010FA2DED048B0646B0EE408A0D4607D7C1
:104760003449FFF767FF0446BDEC048B204670BD5B
:104770009FED317AF0EEC07AF4EE477AF1EE10FA5E
:1047800001DD2E49EDE7DFED2E7AB4EEE70AF1EE1A
:1047900010FA02DD2B493046E3E7DFED2B7AB4EE69
:1047A000E70AF1EE10FAF5D4B5EEC00AF1EE10FA10
:1047B00039D52D21FFF752FFB1EE488A0446002378
:1047C000F6EE007AB2EE047ADAB295422DD838EEDF
:1047D000278A0A22FCEEC88A304618EE901AFFF7A4
:1047E00066FF0444002DBFD02E213046FFF736FF70
:1047F000F8EE688A044438EE688AB2EE049A002D16
:10480000B2D028EE098A0A22FCEEC88A304618EE99
:10481000901AFFF74CFFF8EE688A013D38EE688A7F
:104820000444EDB2EBE70024C9E7C7EE877A013311
:10483000CAE700BF21820008FFFF7F7F25820008B2
:10484000FFFF7F4F29820008FFFF7FCF08B5C9B265
:10485000FFF77AFF08BD38B5C9B20546FFF774FF08
:1048600004462846FFF7FEFE204438BD10B5044636
:1048700000F00CF9E060236820465B699847002847
:1048800008DA00F003F9E368C01AA3689842F2D38B
:104890004FF0FF3010BDF8B507460D468E180C4698
:1048A000B44201D1601BF8BD3846FFF7DFFF431C5F
:1048B000F8D004F8010BF3E72DE9F04107468846EC
:1048C00016461D4673B100243846FFF7CFFF431C40
:1048D00005D0404503D030550134A542F4D12046DF
:1048E000BDE8F0811C46FAE708B50320FDF746FB5A
:1048F000BDE8084000F0DCB808B5AFF30080FCF775
:104900007BFEFCF721FF00F0C5F8FAE7DFF834D0B2
:10491000FEF790FF0C480D490D4A002302E0D458E1
:10492000C4500433C4188C42F9D30A4A0A4C0023F9
:1049300001E013600432A242FBD301F011FAFFF749
:10494000DBFF7047000001200000002078020020FB
:10495000B48A000878020020D8080020FEE7000092
:10496000C3B2312B2DE9F0410D462AD8274A52F81F
:10497000233000F4E0641C43621C44D0244EC4F392
:10498000031704F00F0856F8273023FA08F3DB0763
:1049900010D520492046FEF776FE10B12046FEF7DE
:1049A000E5FC56F82730012202FA08F223EA020356
:1049B00046F82730052D15D8DFE805F015211B1D19
:1049C0001F2300F0C002C02A1DD1CF2B1BD8124BD1
:1049D00000F03F0200F4E06453F822200B4B53F840
:1049E0002230C8E7FEE700212046BDE8F041FEF78F
:1049F00059BE1021F8E72021F6E70321F4E7012151
:104A0000F2E70921F0E7BDE8F08100BF4087000828
:104A1000740700201485000800870008C3B2312BFA
:104A200019D8164A52F8233000F4E0601843431CAA
:104A300010D0C0F30313052B98BF114A00F00F00EC
:104A400098BF52F823200F4B88BF002253F8203024
:104A500091B19361704700F0C002C02AFAD1CF2B08
:104A6000F8D8094B00F03F0200F4E06053F8222030
:104A7000024B53F82230D9E71B04EAE740870008CD
:104A80000C000020E483000800870008FEF7BEBC8D
:104A9000FEF798BC08B5044B2BB10448FFF776FB32
:104AA00008B1AFF3008008BD000000005C060020E4
:104AB000FEF7FCBC024B0146186800F02DB800BFA1
:104AC00028020020024B0146186801F08FB900BF90
:104AD0002802002070B50F4E0C463168054611B90A
:104AE00001F016F930602146284601F011F9431C07
:104AF00003D14FF0FF34204670BDC41C24F00304E2
:104B0000A042F8D0211A284601F002F90130F2D172
:104B1000EFE700BF8C0700202DE9F843CD1C25F0FE
:104B2000030508350C2D38BF0C25002D064601DB8A
:104B3000A94204D90C2333600020BDE8F883DFF8D4
:104B4000D48000F069F8D8F800301C4644BB2946F0
:104B50003046FFF7BFFF431C044658D1D8F8004049
:104B60002746002F43D1002C4BD0236839463046CE
:104B700004EB030901F0CCF8814542D121686D1A9C
:104B800029463046FFF7A6FF01303AD023682B4470
:104B90002360D8F800305A6862BBC8F800700FE094
:104BA0002268521B20D40B2A17D96119A342256011
:104BB00018BF5960636808BFC8F8001062514B60A5
:104BC000304600F02FF804F10B00231D20F0070001
:104BD000C21A1CBF1B1AA350AFE76268A3420CBFE6
:104BE000C8F800205A60EBE723466468AEE73C460D
:104BF0007F68B6E71A465B68A342FBD10023536087
:104C0000DEE70C233360304600F00CF894E70560D3
:104C1000D6E700BF90070020014801F0C6B800BFEA
:104C2000D4080020014801F0C1B800BFD40800201A
:104C300070B504460D4645EC104B164601F0E8FFF2
:104C400051EC100B7EB1C5F30A53C3F16B03002B7B
:104C500009DD1B0503F17F55002405F540152246AB
:104C60002B46FBF7C1FC41EC100B70BD00000000AF
:104C70002DE9F04F9DB00E46159200220490189237
:104C80004FF000084FF0000917910A782B2A0D46C3
:104C900001F101011DD00BD80D2A06D8082AF3D83E
:104CA0007AB100230B939A4683E0202AECD0F8E7F0
:104CB0002D2A10D10122691C17910B926A78002AC3
:104CC00037D1159B1796002B40F0958542464B46F1
:104CD0002AE00022EFE700210B91302A40F09B8070
:104CE0006A7802F0DF02582A5AD102930B9B019393
:104CF00018AB0093814A049819AB17A901F028F961
:104D000010F00F06044605D0062E14D101350023FD
:104D100017950B93159B002B40F06F850B9B002B79
:104D2000D4D0424609F1004343EC102B1DB0BDE83E
:104D3000F08F0D46D1E7189A3AB135211AA802F042
:104D400061F81899049801F027FC013E042E06D85A
:104D5000DFE806F014031E211400DDE91A89E005DE
:104D600048BF49F0004929F000431B0D1B05002BEB
:104D7000D0D100F0EFFF22230360CBE7DDE91A83F7
:104D8000199A23F4801302F2334243EA0259E6E708
:104D9000DFF87091E3E76FF000494FF0FF38DEE78E
:104DA000013517952B78302BFAD0002BB2D04FF06D
:104DB000010A00272B460E97BB460A21184613F816
:104DC000014BA4F13002092A28D94D49012200F0F3
:104DD0002DFF002834D00020CDE9060022465C4695
:104DE000652A01D0452A14D124B95AEA00033FF4B8
:104DF00068AF0024179E731C179372782B2A73D008
:104E00002D2A77D04FF0000CA2F13003092B7FD967
:104E1000179600239EE04FF0000ACAE7BBF1080F87
:104E2000D8BF0E9A1793DBBF01FB0242303A01FB59
:104E300007420E92C8BFA2F130070BF1010BBDE78C
:104E4000179B5A1C17925A78BBF1000F34D006906A
:104E50005C46A2F13003092B12D901230793BFE767
:104E6000179B5A1C17925A780130302AF8D0A2F1B9
:104E70003103082B00F2C6840690179D00200446DB
:104E8000303A00F1010311D00699194406912346E6
:104E900020440A21834203F101040FD1082B18DCBE
:104EA0000E990A2303FB01230E930023179A511C2A
:104EB000179152781846CCE75846D6E7082B04DC01
:104EC0000E9C4C430E940133E4E7102CD8BF4F43A3
:104ED000F9E70F2BDCBF0A2303FB0727E5E70021D7
:104EE0000123CDE9061380E74FF0000CB31C1793A4
:104EF000B27889E74FF0010CF8E700BF508800084E
:104F00002D8200080000F07F179B5A1C17925A78D8
:104F1000302AF9D0A2F13103082B3FF67AAF179B64
:104F20000593A2F1300E013317931A78A2F13001E4
:104F300009293CD905995B1A082B44F61F633CDC10
:104F40009E457146A8BF19460591BCF1000F02D0DD
:104F5000059B5B420593002C50D15AEA00007FF478
:104F6000D9AE079B002B7FF4ACAE692A29D026DC92
:104F7000492A26D04E2A7FF4A4AEA14917A801F0F1
:104F800009FA00283FF49DAE179B1B78282B2FD1E0
:104F90009C491AAA17A801F011FA052828D11B9BD1
:104FA000DDF8688043F0FF4949F4E009B2E60A21E0
:104FB00001FB0E22A2F1300EB5E70593C5E76E2A7C
:104FC000D9E7914917A801F0E5F900283FF479AE37
:104FD000179B8E49013B17A8179301F0DBF910B915
:104FE000179B01331793DFF834924FF0000891E6D6
:104FF000874800F0EDFE59EC108B8BE6DDE90532B9
:105000000E989B1ABBF1000F08BFA346102C0A9301
:10501000A246A8BF4FF0100AFBF76CFA092C804695
:10502000894613DC0A9B002B3FF474AE0A9B73DDA8
:10503000162B5ADC774901EBC301D1E90001424646
:105040004B46FBF7D1FA8046894663E6714B03EB8A
:10505000CA0353E91223FBF7C7FA8046384689464C
:10506000FBF748FA02460B4640464946FBF706F96D
:105070000F2C80468946D5DD0A9BA4EB0A0A9A4488
:10508000BAF1000F40F397802AF00F061AF00F0ACA
:1050900051D1B6F59A7F5EDC0023DFF87CA1361192
:1050A000404649461F46012E79D10BB180468946BC
:1050B0005949A9F1547901EBC70142464B46D1E960
:1050C0000001FBF791FA554B0A460B4054498B42BD
:1050D000804640D8A1F580118B4286BFDFF844910D
:1050E0004FF0FF3802F1547932E00A9AC4F12503F7
:1050F0009342C1DB474DC4F10F0405EBC4014246A6
:105100004B46D1E90001FBF76FFA0A9B1C1B05EB2C
:10511000C405D5E9002394E71633ADDBDDE90523AB
:105120009A1A3C4B03EBC203D3E90023404649469D
:10513000FBF784FB87E7374901EBCA0142464B4640
:10514000D1E90001FBF750FA80468946002EA0D134
:1051500000230793A0E0002405940E940694049A7B
:10516000DFF8B890222313604FF000080E9B002B4D
:105170003FF4D0AD1899049801F00EFA06990498FE
:1051800001F00AFADDE9040101F006FA0E9904982B
:1051900001F002FA0498214601F0FEF9BAE5F2079F
:1051A00004D5DAE90023FBF71FFA01230137761053
:1051B0000AF1080A77E7CBD0CAF1000A4FEA2A16AB
:1051C0001AF00F0A0DD11F2E2EDD002405940E9427
:1051D0000694049A22234FF000084FF00009136050
:1051E000C4E70C4B03EBCA0340464946D3E900230E
:1051F000FBF724FB80468946002EA9D0E3E700BFD9
:10520000228200083C880008268200082F820008BD
:10521000B47F0008C8890008A08900080000F07F5A
:105220000000A07CFFFFEF7F16F0100318BF6A2379
:10523000764F0793404649460023F20704D5D7E945
:105240000023FBF7D1F90123761007F10807F4D109
:105250000BB180468946079BB3B1C9F30A52C2F12C
:105260006B03002B49460FDD1F2B57DD342BDEBFB0
:105270004FF0FF33C2F14B0293404FF00008CCBF18
:105280004FF05C7903EA01090022002340464946B9
:10529000FBF712FC002898D10E9B0093049823463C
:1052A0005A46294601F0E0F90E9000283FF453AF2A
:1052B000DDE905239B1A0A9A002AA8BF002312934E
:1052C000002422EAE273149305940E9B0498596813
:1052D00001F024F9069000283FF441AF0E9B1A69B3
:1052E000023203F10C0192000C3000F060FD49EC39
:1052F000108B04981AAA19A9CDE90C8901F0F8FCC1
:10530000189000283FF42BAF0498012101F042FAD5
:105310000590034648B90023059320E74FF0FF327C
:1053200002FA03F303EA0808AEE7199D1A9A002D62
:10533000ABBF129B149B149E129FACBFEF185E1B59
:10534000079BED1A1544324B013D9D42C2F13602D6
:105350004FDA5B1B1F2BA2EB03024FF001013CDC79
:1053600001FA03FA4FF0000BBD18079BAF42164439
:105370001E443B46A8BF2B46B342A8BF3346002B72
:10538000C2BFED1AF61AFF1A129B002B16DDDDE9DB
:1053900004011A4601F0BEFA05900028BBD0014670
:1053A000189A049801F00CFA0F9000283FF4D7AE39
:1053B0001899049801F0F0F80F9B1893002D1BDC4E
:1053C0000A9B002B26DD149A0699049801F0A2FA94
:1053D0000690F8B900230693C1E6C5F17F4505F5AF
:1053E0007F0505F57B45E23501FA05FB4FF0010A23
:1053F000BAE74FF0000BF9E7189904982A4601F034
:10540000E5FA18900028DBD1A9E600BF68880008FB
:1054100002FCFFFF002E07DD06990498324601F0DA
:10542000D5FA06900028D5D0002F08DDDDE904016B
:105430003A4601F0CBFA059000283FF490AE069A68
:105440001899049801F04CFB044600283FF487AEFD
:10545000C3680F9300230599C36001F025FB002862
:105460003CDA0F9B53EA08035ED1C9F313034D46A0
:10547000002B59D129F000431B0D1B05B3F1D66F4A
:1054800052D9636913B92369012B4DDD21460122ED
:10549000049801F09BFA0599044601F005FB0028E9
:1054A00042DDAD4B079A2B40002A5FD0B3F1D66F97
:1054B0005CD8B3F15C7F7FF68CAEA84B4046494682
:1054C0000022FBF791F8A44B0B4080468946002B45
:1054D0007FF450AE049A222313604BE64D4662D10E
:1054E0000F9AC9F3130342B39D4A934228D1079BF5
:1054F0004146EBB1984B2B40B3F1D46F4FF0FF32E4
:1055000019D81B0DC3F16B0302FA03F3994217D1AB
:10551000944B9D4202D101313FF421AE8E4B2B4082
:1055200003F580194FF00008079B002BC5D121E639
:105530004FF0FF33EAE71346E8E753EA0803B0D039
:10554000BBF1000F1BD01BEA050FEDD00F9B079A94
:1055500040464946B3B1FFF76BFBDDE90C0153EC64
:10556000102BFAF78BFE80468946DDE7A3F5801302
:105570006FEA13596FEA09594FF0FF38D4E71AEA76
:10558000080FE2E7FFF754FBDDE90C0153EC102BA9
:10559000FAF772FE0022002380468946FBF78CFA58
:1055A0000028C1D015E60599204601F0F9FB57EC1B
:1055B000106B00224FF0804330463946FBF790FADB
:1055C000002870D00F9B002B7BD1B8F1000F56D173
:1055D000C9F31303002B58D1634B002230463946E0
:1055E000FBF774FA002859D1604B00223046394647
:1055F000FAF7FAFF82468B460BF10043CDF820A064
:105600000993554B544A2B401393594B2A409A42C5
:10561000DDE9086740F0B080A5F1547949EC108BC2
:1056200001F0F6FADDE9082351EC100BFAF7DCFF84
:1056300042464B46FAF722FE474D4E4A0D409542F0
:10564000804645D90D9A474B9A4203D10C9B0133B2
:105650003FF485ADDFF80C914FF0FF3818990498AE
:1056600000F09AFF0699049800F096FFDDE9040126
:1056700000F092FF0498214600F08EFF25E6B8F175
:10568000010F02D1002D3FF4A4AD9FED2B7BDFF87D
:10569000D8B08DED087B4FF0000AB2E7DFF8CCB050
:1056A0004FF0000AA8E7314B002230463946FAF79E
:1056B0009BFF0F9B82468B46002B9DD0CDE908AB0C
:1056C0009FE79FED1F7B8DED087B5BEC17AB98E7A9
:1056D00001F15479079B002BC0D129F00043139AA4
:1056E0001B0D1B059A42B9D15046594602F058F994
:1056F000FAF74CFF02460B4650465946FAF7BCFDF6
:105700000F9AC9F3130343EA0803134306460F46EF
:105710006BD00DA3D3E90023FBF7D8F900287FF461
:1057200029AD0BA3D3E9002330463946FBF7ECF94A
:10573000002893D01EE500BF000000000000F0BF6D
:10574000000000000000F03F9535A094FFFFDF3F10
:1057500035E5AF350000E03F0000F07F0000503934
:10576000FFFF0F00FFFFEF7F0000F03F0000E03F72
:105770000000E07FFFFF9F7C079B13B3139BB3F1F7
:10578000D46F1ED824A3D3E9002350465946FBF713
:10579000A7F990B159465046FBF7FEF9012838BFEA
:1057A0000120FAF7A7FE0F9B82468B46D3B901F181
:1057B000004310901193DDE91067139A07F1D66347
:1057C0009F1A9DED0C0B01F023FA304653EC102B81
:1057D0003946FAF709FFDDE90C23FAF74FFD804659
:1057E000894677E7CDE910ABE5E70DA3D3E90023C0
:1057F000FBF76CF99CE700230B93159A179B13603A
:10580000FFF78CBA652A3FF46AAB452A3FF467ABD1
:1058100001230793FFF7A1BB0000C0FFFFFFDF419B
:105820009535A094FFFFCF3F2DE9F041DFF8BC8014
:10583000294B0A462DED028B0146D8F80000FFF7F0
:1058400017FA55EC104B22462B4620462946FBF70B
:1058500065F990B1002D214809DA00F0C1FAB1EEE6
:10586000408AB0EE480ABDEC028BBDE8F081BDEC89
:10587000028BBDE8F04100F0B3BA20462946FBF7A1
:10588000ABF908EE100ADFED167AB0EEC87AB4EE86
:10589000677AF1EE10FA11DD25F00047114B4FF059
:1058A000FF3220463946FBF739F980B90D4B4FF0EE
:1058B000FF3220463946FBF713F940B918EE103A8B
:1058C00013F0FF4FCDD1084B2B40002BC9D0D8F897
:1058D000003022221A60C4E7BC000020B47F000818
:1058E000FFFF7F7FFFFFEF7F0000F07F2802002097
:1058F000242B2DE9F0478646904601D8012B06D18E
:1059000000F028FA162303600020BDE8F087344831
:105910000D462A4615F8014B065D16F00806F8D12B
:105920002D2C10D12C780126951C33F0100215D1A6
:10593000302C0DD12A7802F0DF02582A08D16C7879
:10594000023510230AE02B2C04BF2C78951CECE7C1
:10595000002BF6D1302C14BF0A23082306F1004C8B
:105960000CF1FF3C0022BCFBF3F9104603FB19CA03
:10597000A4F13007092F0FD83C46A3421BDD571C6A
:1059800007D0814514D301D1A24511DB00FB0340B0
:10599000012215F8014BEBE7A4F14107192F01D8BB
:1059A000373CEAE7A4F16107192F04D8573CE4E734
:1059B0004FF0FF32EDE7531C08D12223CEF8003020
:1059C0006046B8F1000FA0D0691E06E006B1404263
:1059D000B8F1000F99D0002AF6D1C8F8001094E76A
:1059E0009188000813460A46014602480068FFF7FE
:1059F0007FBF00BF28020020034B1B5C03F00303A2
:105A0000022B08BF2038704791880008002310B58A
:105A10000446C0E90033C0E90433836081814366F2
:105A2000C2818361194608225C3000F0F7F80D4B03
:105A300063620D4BA3620D4BE3620D4B23630D4B71
:105A400024629C4206D003F16802944202D0D03313
:105A50009C4205D104F15800BDE8104000F0A4B903
:105A600010BD00BF955B0008B75B0008EF5B000846
:105A7000155C000894070020024A0349034800F01F
:105A80006BB800BFB0000020C57200082C020020D7
:105A900041680C4B994210B5044601D001F012FC4C
:105AA000A168094B994202D0204601F00BFCE16845
:105AB000064B994204D02046BDE8104001F002BCDC
:105AC00010BD00BF94070020FC07002064080020E0
:105AD0000C4B0D4A0D4810B504211A600022FFF747
